{
  "_format": "hh-sol-artifact-1",
  "contractName": "Transactions",
  "sourceName": "contracts/Transactions.sol",
  "abi": [
    {
      "anonymous": false,
      "inputs": [
        {
          "indexed": false,
          "internalType": "address",
          "name": "sender",
          "type": "address"
        },
        {
          "indexed": false,
          "internalType": "string",
          "name": "name",
          "type": "string"
        },
        {
          "indexed": false,
          "internalType": "string",
          "name": "dateOfBirth",
          "type": "string"
        },
        {
          "indexed": false,
          "internalType": "string",
          "name": "movieName",
          "type": "string"
        },
        {
          "indexed": false,
          "internalType": "string",
          "name": "movieId",
          "type": "string"
        },
        {
          "indexed": false,
          "internalType": "string",
          "name": "director",
          "type": "string"
        },
        {
          "indexed": false,
          "internalType": "string",
          "name": "period",
          "type": "string"
        },
        {
          "indexed": false,
          "internalType": "uint256",
          "name": "timestamp",
          "type": "uint256"
        }
      ],
      "name": "Transfer",
      "type": "event"
    },
    {
      "inputs": [
        {
          "internalType": "string",
          "name": "name",
          "type": "string"
        },
        {
          "internalType": "string",
          "name": "dateOfBirth",
          "type": "string"
        },
        {
          "internalType": "string",
          "name": "movieName",
          "type": "string"
        },
        {
          "internalType": "string",
          "name": "movieId",
          "type": "string"
        },
        {
          "internalType": "string",
          "name": "director",
          "type": "string"
        },
        {
          "internalType": "string",
          "name": "period",
          "type": "string"
        }
      ],
      "name": "addToBlockchain",
      "outputs": [],
      "stateMutability": "nonpayable",
      "type": "function"
    },
    {
      "inputs": [],
      "name": "getAllTransactions",
      "outputs": [
        {
          "components": [
            {
              "internalType": "address",
              "name": "sender",
              "type": "address"
            },
            {
              "internalType": "string",
              "name": "name",
              "type": "string"
            },
            {
              "internalType": "string",
              "name": "dateOfBirth",
              "type": "string"
            },
            {
              "internalType": "string",
              "name": "movieName",
              "type": "string"
            },
            {
              "internalType": "string",
              "name": "movieId",
              "type": "string"
            },
            {
              "internalType": "string",
              "name": "director",
              "type": "string"
            },
            {
              "internalType": "string",
              "name": "period",
              "type": "string"
            },
            {
              "internalType": "uint256",
              "name": "timestamp",
              "type": "uint256"
            }
          ],
          "internalType": "struct Transactions.TransferStruct[]",
          "name": "",
          "type": "tuple[]"
        }
      ],
      "stateMutability": "view",
      "type": "function"
    },
    {
      "inputs": [],
      "name": "getTransactionCount",
      "outputs": [
        {
          "internalType": "uint256",
          "name": "",
          "type": "uint256"
        }
      ],
      "stateMutability": "view",
      "type": "function"
    },
    {
      "inputs": [
        {
          "internalType": "address",
          "name": "walletAddress",
          "type": "address"
        }
      ],
      "name": "getUserDetail",
      "outputs": [
        {
          "internalType": "string",
          "name": "name",
          "type": "string"
        },
        {
          "internalType": "string",
          "name": "dateOfBirth",
          "type": "string"
        }
      ],
      "stateMutability": "view",
      "type": "function"
    },
    {
      "inputs": [
        {
          "internalType": "address",
          "name": "",
          "type": "address"
        }
      ],
      "name": "transfer",
      "outputs": [
        {
          "internalType": "address",
          "name": "sender",
          "type": "address"
        },
        {
          "internalType": "string",
          "name": "name",
          "type": "string"
        },
        {
          "internalType": "string",
          "name": "dateOfBirth",
          "type": "string"
        },
        {
          "internalType": "string",
          "name": "movieName",
          "type": "string"
        },
        {
          "internalType": "string",
          "name": "movieId",
          "type": "string"
        },
        {
          "internalType": "string",
          "name": "director",
          "type": "string"
        },
        {
          "internalType": "string",
          "name": "period",
          "type": "string"
        },
        {
          "internalType": "uint256",
          "name": "timestamp",
          "type": "uint256"
        }
      ],
      "stateMutability": "view",
      "type": "function"
    }
  ],
  "bytecode": "0x608060405234801561001057600080fd5b506116a0806100206000396000f3fe608060405234801561001057600080fd5b50600436106100575760003560e01c80631a6952301461005c57806327506f53146100935780632e7700f0146100b15780634a48c84b146100cf578063f29e69ac14610100575b600080fd5b61007660048036038101906100719190610f13565b61011c565b60405161008a989796959493929190611001565b60405180910390f35b61009b6104b4565b6040516100a891906112a6565b60405180910390f35b6100b96108e0565b6040516100c691906112c8565b60405180910390f35b6100e960048036038101906100e49190610f13565b6108e9565b6040516100f79291906112e3565b60405180910390f35b61011a6004803603810190610115919061144f565b610a8b565b005b60026020528060005260406000206000915090508060000160009054906101000a900473ffffffffffffffffffffffffffffffffffffffff1690806001018054610165906115b3565b80601f0160208091040260200160405190810160405280929190818152602001828054610191906115b3565b80156101de5780601f106101b3576101008083540402835291602001916101de565b820191906000526020600020905b8154815290600101906020018083116101c157829003601f168201915b5050505050908060020180546101f3906115b3565b80601f016020809104026020016040519081016040528092919081815260200182805461021f906115b3565b801561026c5780601f106102415761010080835404028352916020019161026c565b820191906000526020600020905b81548152906001019060200180831161024f57829003601f168201915b505050505090806003018054610281906115b3565b80601f01602080910402602001604051908101604052809291908181526020018280546102ad906115b3565b80156102fa5780601f106102cf576101008083540402835291602001916102fa565b820191906000526020600020905b8154815290600101906020018083116102dd57829003601f168201915b50505050509080600401805461030f906115b3565b80601f016020809104026020016040519081016040528092919081815260200182805461033b906115b3565b80156103885780601f1061035d57610100808354040283529160200191610388565b820191906000526020600020905b81548152906001019060200180831161036b57829003601f168201915b50505050509080600501805461039d906115b3565b80601f01602080910402602001604051908101604052809291908181526020018280546103c9906115b3565b80156104165780601f106103eb57610100808354040283529160200191610416565b820191906000526020600020905b8154815290600101906020018083116103f957829003601f168201915b50505050509080600601805461042b906115b3565b80601f0160208091040260200160405190810160405280929190818152602001828054610457906115b3565b80156104a45780601f10610479576101008083540402835291602001916104a4565b820191906000526020600020905b81548152906001019060200180831161048757829003601f168201915b5050505050908060070154905088565b60606001805480602002602001604051908101604052809291908181526020016000905b828210156108d75783829060005260206000209060080201604051806101000160405290816000820160009054906101000a900473ffffffffffffffffffffffffffffffffffffffff1673ffffffffffffffffffffffffffffffffffffffff1673ffffffffffffffffffffffffffffffffffffffff168152602001600182018054610562906115b3565b80601f016020809104026020016040519081016040528092919081815260200182805461058e906115b3565b80156105db5780601f106105b0576101008083540402835291602001916105db565b820191906000526020600020905b8154815290600101906020018083116105be57829003601f168201915b505050505081526020016002820180546105f4906115b3565b80601f0160208091040260200160405190810160405280929190818152602001828054610620906115b3565b801561066d5780601f106106425761010080835404028352916020019161066d565b820191906000526020600020905b81548152906001019060200180831161065057829003601f168201915b50505050508152602001600382018054610686906115b3565b80601f01602080910402602001604051908101604052809291908181526020018280546106b2906115b3565b80156106ff5780601f106106d4576101008083540402835291602001916106ff565b820191906000526020600020905b8154815290600101906020018083116106e257829003601f168201915b50505050508152602001600482018054610718906115b3565b80601f0160208091040260200160405190810160405280929190818152602001828054610744906115b3565b80156107915780601f1061076657610100808354040283529160200191610791565b820191906000526020600020905b81548152906001019060200180831161077457829003601f168201915b505050505081526020016005820180546107aa906115b3565b80601f01602080910402602001604051908101604052809291908181526020018280546107d6906115b3565b80156108235780601f106107f857610100808354040283529160200191610823565b820191906000526020600020905b81548152906001019060200180831161080657829003601f168201915b5050505050815260200160068201805461083c906115b3565b80601f0160208091040260200160405190810160405280929190818152602001828054610868906115b3565b80156108b55780601f1061088a576101008083540402835291602001916108b5565b820191906000526020600020905b81548152906001019060200180831161089857829003601f168201915b50505050508152602001600782015481525050815260200190600101906104d8565b50505050905090565b60008054905090565b606080600260008473ffffffffffffffffffffffffffffffffffffffff1673ffffffffffffffffffffffffffffffffffffffff1681526020019081526020016000206001018054610939906115b3565b80601f0160208091040260200160405190810160405280929190818152602001828054610965906115b3565b80156109b25780601f10610987576101008083540402835291602001916109b2565b820191906000526020600020905b81548152906001019060200180831161099557829003601f168201915b50505050509150600260008473ffffffffffffffffffffffffffffffffffffffff1673ffffffffffffffffffffffffffffffffffffffff1681526020019081526020016000206002018054610a06906115b3565b80601f0160208091040260200160405190810160405280929190818152602001828054610a32906115b3565b8015610a7f5780601f10610a5457610100808354040283529160200191610a7f565b820191906000526020600020905b815481529060010190602001808311610a6257829003601f168201915b50505050509050915091565b6001600080828254610a9d9190611614565b9250508190555060016040518061010001604052803373ffffffffffffffffffffffffffffffffffffffff16815260200188815260200187815260200186815260200185815260200184815260200183815260200142815250908060018154018082558091505060019003906000526020600020906008020160009091909190915060008201518160000160006101000a81548173ffffffffffffffffffffffffffffffffffffffff021916908373ffffffffffffffffffffffffffffffffffffffff1602179055506020820151816001019080519060200190610b82929190610dfe565b506040820151816002019080519060200190610b9f929190610dfe565b506060820151816003019080519060200190610bbc929190610dfe565b506080820151816004019080519060200190610bd9929190610dfe565b5060a0820151816005019080519060200190610bf6929190610dfe565b5060c0820151816006019080519060200190610c13929190610dfe565b5060e0820151816007015550506040518061010001604052803373ffffffffffffffffffffffffffffffffffffffff16815260200187815260200186815260200185815260200184815260200183815260200182815260200142815250600260003373ffffffffffffffffffffffffffffffffffffffff1673ffffffffffffffffffffffffffffffffffffffff16815260200190815260200160002060008201518160000160006101000a81548173ffffffffffffffffffffffffffffffffffffffff021916908373ffffffffffffffffffffffffffffffffffffffff1602179055506020820151816001019080519060200190610d12929190610dfe565b506040820151816002019080519060200190610d2f929190610dfe565b506060820151816003019080519060200190610d4c929190610dfe565b506080820151816004019080519060200190610d69929190610dfe565b5060a0820151816005019080519060200190610d86929190610dfe565b5060c0820151816006019080519060200190610da3929190610dfe565b5060e082015181600701559050507fb9994bb93f28aed0833fc6da0e86fea2423ca4852bac702fe03164a4f736d9bd3387878787878742604051610dee989796959493929190611001565b60405180910390a1505050505050565b828054610e0a906115b3565b90600052602060002090601f016020900481019282610e2c5760008555610e73565b82601f10610e4557805160ff1916838001178555610e73565b82800160010185558215610e73579182015b82811115610e72578251825591602001919060010190610e57565b5b509050610e809190610e84565b5090565b5b80821115610e9d576000816000905550600101610e85565b5090565b6000604051905090565b600080fd5b600080fd5b600073ffffffffffffffffffffffffffffffffffffffff82169050919050565b6000610ee082610eb5565b9050919050565b610ef081610ed5565b8114610efb57600080fd5b50565b600081359050610f0d81610ee7565b92915050565b600060208284031215610f2957610f28610eab565b5b6000610f3784828501610efe565b91505092915050565b610f4981610ed5565b82525050565b600081519050919050565b600082825260208201905092915050565b60005b83811015610f89578082015181840152602081019050610f6e565b83811115610f98576000848401525b50505050565b6000601f19601f8301169050919050565b6000610fba82610f4f565b610fc48185610f5a565b9350610fd4818560208601610f6b565b610fdd81610f9e565b840191505092915050565b6000819050919050565b610ffb81610fe8565b82525050565b600061010082019050611017600083018b610f40565b8181036020830152611029818a610faf565b9050818103604083015261103d8189610faf565b905081810360608301526110518188610faf565b905081810360808301526110658187610faf565b905081810360a08301526110798186610faf565b905081810360c083015261108d8185610faf565b905061109c60e0830184610ff2565b9998505050505050505050565b600081519050919050565b600082825260208201905092915050565b6000819050602082019050919050565b6110de81610ed5565b82525050565b600082825260208201905092915050565b600061110082610f4f565b61110a81856110e4565b935061111a818560208601610f6b565b61112381610f9e565b840191505092915050565b61113781610fe8565b82525050565b60006101008301600083015161115660008601826110d5565b506020830151848203602086015261116e82826110f5565b9150506040830151848203604086015261118882826110f5565b915050606083015184820360608601526111a282826110f5565b915050608083015184820360808601526111bc82826110f5565b91505060a083015184820360a08601526111d682826110f5565b91505060c083015184820360c08601526111f082826110f5565b91505060e083015161120560e086018261112e565b508091505092915050565b600061121c838361113d565b905092915050565b6000602082019050919050565b600061123c826110a9565b61124681856110b4565b935083602082028501611258856110c5565b8060005b8581101561129457848403895281516112758582611210565b945061128083611224565b925060208a0199505060018101905061125c565b50829750879550505050505092915050565b600060208201905081810360008301526112c08184611231565b905092915050565b60006020820190506112dd6000830184610ff2565b92915050565b600060408201905081810360008301526112fd8185610faf565b905081810360208301526113118184610faf565b90509392505050565b600080fd5b600080fd5b7f4e487b7100000000000000000000000000000000000000000000000000000000600052604160045260246000fd5b61135c82610f9e565b810181811067ffffffffffffffff8211171561137b5761137a611324565b5b80604052505050565b600061138e610ea1565b905061139a8282611353565b919050565b600067ffffffffffffffff8211156113ba576113b9611324565b5b6113c382610f9e565b9050602081019050919050565b82818337600083830152505050565b60006113f26113ed8461139f565b611384565b90508281526020810184848401111561140e5761140d61131f565b5b6114198482856113d0565b509392505050565b600082601f8301126114365761143561131a565b5b81356114468482602086016113df565b91505092915050565b60008060008060008060c0878903121561146c5761146b610eab565b5b600087013567ffffffffffffffff81111561148a57611489610eb0565b5b61149689828a01611421565b965050602087013567ffffffffffffffff8111156114b7576114b6610eb0565b5b6114c389828a01611421565b955050604087013567ffffffffffffffff8111156114e4576114e3610eb0565b5b6114f089828a01611421565b945050606087013567ffffffffffffffff81111561151157611510610eb0565b5b61151d89828a01611421565b935050608087013567ffffffffffffffff81111561153e5761153d610eb0565b5b61154a89828a01611421565b92505060a087013567ffffffffffffffff81111561156b5761156a610eb0565b5b61157789828a01611421565b9150509295509295509295565b7f4e487b7100000000000000000000000000000000000000000000000000000000600052602260045260246000fd5b600060028204905060018216806115cb57607f821691505b602082108114156115df576115de611584565b5b50919050565b7f4e487b7100000000000000000000000000000000000000000000000000000000600052601160045260246000fd5b600061161f82610fe8565b915061162a83610fe8565b9250827fffffffffffffffffffffffffffffffffffffffffffffffffffffffffffffffff0382111561165f5761165e6115e5565b5b82820190509291505056fea2646970667358221220dd82e4f53003e827c5d88bc6192711c98edec64dd4ff578628c0f268e305cb6864736f6c63430008090033",
  "linkReferences": {},
  "deployedLinkReferences": {}
}